:100000000C9449000C9466000C9466000C946600F5
:100010000C9466000C9466000C9466000C946600C8
:100020000C9466000C9466000C9466000C946600B8
:100030000C9466000C9466000C9466000C946600A8
:100040000C9466000C9466000C9466000C94660098
:100050000C9466000C9466000C9466000C94660088
:100060000C9466000C9466003F065B4F666D7D073E
:100070007F6F80777C395E7971761E385473507843
:100080003E8030313233343536373839414243449B
:10009000454611241FBECFEFD8E0DEBFCDBF11E033
:1000A000A0E0B1E0E4E4F6E202C005900D92A431D4
:1000B000B107D9F721E0A4E1B1E001C01D92A83257
:1000C000B207E1F70E94DA080C9420130C940000A8
:1000D000CF93DF9300D01F92CDB7DEB78A836B83B7
:1000E0008B81282F30E081E090E002C0880F991FBB
:1000F0002A95E2F7982F8A81892389838981882329
:1001000011F081E0898389810F900F900F90DF912A
:10011000CF910895CF93DF93CDB7DEB78AE790E014
:100120002AE730E0F90120812160FC0120838AE781
:1001300090E02AE730E0F90120812260FC01208371
:100140008AE790E02AE730E0F90120812B7FFC016B
:1001500020838CE790E02CE730E0F90120812064D7
:10016000FC0120838CE790E02CE730E0F90120814E
:100170002F77FC0120838BE790E02BE730E0F9013B
:100180002081287FFC0120838AE790E02AE730E085
:10019000F90120812F7DFC0120838AE790E02AE786
:1001A00030E0F90120812068FC012083DF91CF91AC
:1001B0000895CF93DF9300D01F92CDB7DEB78B8326
:1001C0008CE790E02CE730E0F9012081207FFC01F2
:1001D00020838CE790E02CE730E0F90130812B811F
:1001E000232BFC0120838AE790E02AE730E0F90125
:1001F00020812064FC01208300008AE790E0FC015C
:100200008081882F90E080749927892BB1F788E747
:1002100090E0FC01808191819A83898389819A8110
:100220000F900F900F90DF91CF910895CF93DF93B0
:10023000CDB7DEB728970FB6F894DEBF0FBECDBF9F
:1002400098878F831A8219821E821D821C821B82CC
:1002500016C089819A81FC018491882F90E02D81BC
:100260003E81820F931F9E838D8389819A8101969F
:100270009A8389838B819C8101969C838B832B81BC
:100280003C818F8198852817390718F38D819E81CD
:1002900028960FB6F894DEBF0FBECDBFDF91CF9189
:1002A0000895CF93DF93CDB7DEB729970FB6F894B3
:1002B000DEBF0FBECDBF8F837987688788858F703B
:1002C000898388859985929582958F7089279F70FB
:1002D00089279B838A838A818F708C838A819B8103
:1002E000929582958F7089279F7089279B838A8337
:1002F0008A818F708D838A819B81929582958F7080
:1003000089279F7089279B838A838A818F708E8338
:100310008F81882319F08F810E9487078E81882F13
:1003200090E022E830E0820F931FFC0184910E944C
:100330002A088D81882F90E022E830E0820F931FF9
:10034000FC0184910E942A088C81882F90E022E889
:1003500030E0820F931FFC0184910E942A0889815A
:10036000882F90E022E830E0820F931FFC018491F7
:100370000E942A0829960FB6F894DEBF0FBECDBFA3
:10038000DF91CF910895CF93DF93CDB7DEB7AB97D1
:100390000FB6F894DEBF0FBECDBF8E836F83288764
:1003A00039874A875B8788859985AA85BB8520E13F
:1003B00037E240E050E0BC01CD010E94FE12DA01BC
:1003C000C901898388859985AA85BB8528EE33E094
:1003D00040E050E0BC01CD010E94FE12DA01C901EB
:1003E0002AE030E040E050E0BC01CD010E94FE1266
:1003F000DC01CB018A8388859985AA85BB8524E6A3
:1004000030E040E050E0BC01CD010E94FE12DA0174
:10041000C9012AE030E040E050E0BC01CD010E947B
:10042000FE12DC01CB018B8388859985AA85BB856B
:100430002AE030E040E050E0BC01CD010E94FE1215
:10044000DA01C9012AE030E040E050E0BC01CD0112
:100450000E94FE12DC01CB018C8388859985AA85D8
:10046000BB852AE030E040E050E0BC01CD010E94B5
:10047000FE12DC01CB018D838E810E9487078F8164
:10048000882F90E083309105B1F08430910534F4E9
:1004900081309105C1F0029791F01AC08430910526
:1004A00031F00597A9F48981805D0E942A088A812C
:1004B000805D0E942A088B81805D0E942A088C81C1
:1004C000805D0E942A088D81805D0E942A0805C0F7
:1004D00060E071E08E810E94A807AB960FB6F89499
:1004E000DEBF0FBECDBFDF91CF910895CF93DF93D5
:1004F00000D000D000D0CDB7DEB78A837C836B8379
:100500005E834D838A81813059F48DE00E947A03A5
:100510008B819C810E94B0028DE00E94D30217C0A3
:100520008A81898311C08DE00E947A038B819C812E
:100530000E94B0028DE00E94D3028D819E810E94B4
:10054000B0028981815089838981882361F7269649
:100550000FB6F894DEBF0FBECDBFDF91CF910895E7
:10056000CF93DF9300D01F92CDB7DEB79B838A83F2
:1005700081E689830EC003C0898181508983898186
:100580008823D1F78A819B8101979B838A8381E6A7
:1005900089838A819B81892B71F70F900F900F902F
:1005A000DF91CF910895CF93DF931F92CDB7DEB740
:1005B00089838981823018F08981873030F0898180
:1005C0008B30C8F189818E30B0F589818230D8F0C6
:1005D00089818730C0F48BE290E02BE230E0F901B2
:1005E0002081622F2981222F30E0A9014250510938
:1005F00021E030E002C0220F331F4A95E2F7262B9C
:10060000FC01208335C08BE290E02BE230E0F90161
:100610002081622F2981222F30E0A9014650510903
:1006200021E030E002C0220F331F4A95E2F7262B6B
:10063000FC0120831DC089818E30D0F089818431F6
:10064000B8F485E290E025E230E0F9012081622FE4
:100650002981222F30E0A9014E50510921E030E0DC
:1006600002C0220F331F4A95E2F7262BFC0120839C
:100670008981873118F089818D3118F08981813025
:10068000A9F589818731D8F089818D31C0F488E25C
:1006900090E028E230E0F9012081622F2981222FA9
:1006A00030E0A9014751510921E030E002C0220F9A
:1006B000331F4A95E2F7262BFC01208317C088E2FE
:1006C00090E028E230E0F9012081622F2981222F79
:1006D00030E0A9014550510921E030E002C0220F6D
:1006E000331F4A95E2F7262BFC0120830F90DF9100
:1006F000CF910895CF93DF931F92CDB7DEB7898353
:100700008981823018F08981873030F089818B307F
:10071000D8F189818E30C0F589818230E0F08981FD
:100720008730C8F48BE290E02BE230E0F9012081C1
:10073000622F2981222F30E0A9014250510921E086
:1007400030E002C0220F331F4A95E2F7209526239E
:10075000FC01208337C08BE290E02BE230E0F9010E
:100760002081622F2981222F30E0A90146505109B2
:1007700021E030E002C0220F331F4A95E2F72095B6
:100780002623FC0120831EC089818E30D8F0898108
:100790008431C0F485E290E025E230E0F901208167
:1007A000622F2981222F30E0A9014E50510921E00A
:1007B00030E002C0220F331F4A95E2F7209526232E
:1007C000FC0120838981873118F089818D3118F0EF
:1007D00089818130B9F589818731E0F089818D3156
:1007E000C8F488E290E028E230E0F9012081622F2D
:1007F0002981222F30E0A9014751510921E030E041
:1008000002C0220F331F4A95E2F720952623FC01F0
:10081000208318C088E290E028E230E0F9012081CE
:10082000622F2981222F30E0A9014550510921E092
:1008300030E002C0220F331F4A95E2F720952623AD
:10084000FC0120830F90DF91CF910895CF93DF9328
:100850001F92CDB7DEB789838981823018F08981F4
:10086000873030F089818B30C8F189818E30B0F5C6
:1008700089818230D8F089818730C0F48BE290E0A2
:100880002BE230E0F9012081622F2981222F30E014
:10089000A9014250510921E030E002C0220F331F6C
:1008A0004A95E2F72627FC01208335C08BE290E0D1
:1008B0002BE230E0F9012081622F2981222F30E0E4
:1008C000A9014650510921E030E002C0220F331F38
:1008D0004A95E2F72627FC0120831DC089818E30CE
:1008E000D0F089818431B8F485E290E025E230E0EF
:1008F000F9012081622F2981222F30E0A9014E5079
:10090000510921E030E002C0220F331F4A95E2F77F
:100910002627FC0120838981873118F089818D3158
:1009200018F089818130A9F589818731D8F08981D2
:100930008D31C0F488E290E028E230E0F9012081B6
:10094000622F2981222F30E0A9014751510921E06E
:1009500030E002C0220F331F4A95E2F72627FC0140
:10096000208317C088E290E028E230E0F90120817E
:10097000622F2981222F30E0A9014550510921E041
:1009800030E002C0220F331F4A95E2F72627FC0110
:1009900020830F90DF91CF910895CF93DF931F9223
:1009A000CDB7DEB789838981883088F48981282F83
:1009B00030E081E090E002C0880F991F2A95E2F7AD
:1009C000982F80911401892B8093140133C0898161
:1009D0008830B8F089818031A0F48981885089837A
:1009E0008981282F30E081E090E002C0880F991FB4
:1009F0002A95E2F7982F80911601892B8093160192
:100A000019C089818031B0F08981883198F4898159
:100A1000805189838981282F30E081E090E002C0F5
:100A2000880F991F2A95E2F7982F80911501892B3D
:100A3000809315010F90DF91CF910895CF93DF93AD
:100A40001F92CDB7DEB789838981883088F4898188
:100A5000282F30E081E090E002C0880F991F2A958E
:100A6000E2F780959091140189238093140133C09B
:100A700089818830B8F089818031A0F489818850DB
:100A800089838981282F30E081E090E002C0880FBF
:100A9000991F2A95E2F780959091160189238093FA
:100AA000160119C089818031B0F08981883198F4AC
:100AB0008981805189838981282F30E081E090E00D
:100AC00002C0880F991F2A95E2F780959091150131
:100AD0008923809315010F90DF91CF910895CF93D3
:100AE000DF9300D0CDB7DEB78A8319828A81883040
:100AF00080F48A81282F30E081E090E002C0880FE6
:100B0000991F2A95E2F7982F8091140189238983F0
:100B100031C08A818830B0F08A81803198F48A812E
:100B200088508A838A81282F30E081E090E002C0DB
:100B3000880F991F2A95E2F7982F80911601892333
:100B4000898318C08A818031A8F08A81883190F425
:100B50008A8180518A838A81282F30E081E090E069
:100B600002C0880F991F2A95E2F7982F80911501EE
:100B7000892389838981882311F081E08983898190
:100B80000F900F90DF91CF910895CF93DF931F9235
:100B9000CDB7DEB789838981883088F48981282F91
:100BA00030E081E090E002C0880F991F2A95E2F7BB
:100BB000982F8091140189278093140133C0898173
:100BC0008830B8F089818031A0F489818850898388
:100BD0008981282F30E081E090E002C0880F991FC2
:100BE0002A95E2F7982F80911601892780931601A4
:100BF00019C089818031B0F08981883198F4898168
:100C0000805189838981282F30E081E090E002C003
:100C1000880F991F2A95E2F7982F8091150189274F
:100C2000809315010F90DF91CF910895CF93DF93BB
:100C300000D0CDB7DEB789836A838981823018F00E
:100C40008981873040F089818B3008F476C08981B2
:100C50008E3008F072C08A818823C1F58981823084
:100C6000E0F089818730C8F48AE290E02AE230E03F
:100C7000F9012081622F2981222F30E0A901425001
:100C8000510921E030E002C0220F331F4A95E2F7FC
:100C900020952623FC0120834FC08AE290E02AE2BF
:100CA00030E0F9012081622F2981222F30E0A90153
:100CB0004650510921E030E002C0220F331F4A950F
:100CC000E2F720952623FC01208336C089818230FB
:100CD000D8F089818730C0F48AE290E02AE230E0DF
:100CE000F9012081622F2981222F30E0A901425091
:100CF000510921E030E002C0220F331F4A95E2F78C
:100D0000262BFC01208318C08AE290E02AE230E022
:100D1000F9012081622F2981222F30E0A90146505C
:100D2000510921E030E002C0220F331F4A95E2F75B
:100D3000262BFC012083B5C0B4C089818E30B8F168
:100D400089818431A0F58A818823C9F484E290E006
:100D500024E230E0F9012081622F2981222F30E046
:100D6000A9014E50510921E030E002C0220F331F8B
:100D70004A95E2F720952623FC01208392C084E265
:100D800090E024E230E0F9012081622F2981222FB6
:100D900030E0A9014E50510921E030E002C0220F9D
:100DA000331F4A95E2F7262BFC0120837AC0898104
:100DB000873118F089818D3120F08981813009F0E7
:100DC00070C08A818823C1F589818731E0F08981EB
:100DD0008D31C8F487E290E027E230E0F90120810C
:100DE000622F2981222F30E0A9014751510921E0CA
:100DF00030E002C0220F331F4A95E2F720952623E8
:100E0000FC0120834EC087E290E027E230E0F90148
:100E10002081622F2981222F30E0A90145505109FC
:100E200021E030E002C0220F331F4A95E2F72095FF
:100E30002623FC01208335C089818731D8F0898140
:100E40008D31C0F487E290E027E230E0F9012081A3
:100E5000622F2981222F30E0A9014751510921E059
:100E600030E002C0220F331F4A95E2F7262BFC0127
:100E7000208317C087E290E027E230E0F90120816B
:100E8000622F2981222F30E0A9014550510921E02C
:100E900030E002C0220F331F4A95E2F7262BFC01F7
:100EA00020830F900F90DF91CF910895CF93DF9320
:100EB000CDB7DEB788E30E9450088AE090E00E9438
:100EC000B00288E30E9450088AE090E00E94B002DD
:100ED00086E00E9450088AE090E00E94B0028CE018
:100EE0000E9450088AE090E00E94B00281E00E94D7
:100EF00050088AE090E00E94B00280E80E9450080A
:100F00008AE090E00E94B002DF91CF910895CF93E4
:100F1000DF931F92CDB7DEB789838981813160F479
:100F2000898181508983898180580E94500882E09C
:100F300090E00E94B00208C0898181550E9450084B
:100F400082E090E00E94B0020F90DF91CF9108956F
:100F5000CF93DF9300D000D01F92CDB7DEB78B8345
:100F60007D836C838B810E9487078B81813138F070
:100F700091E28B81292F281B822F8A8306C091E161
:100F80008B81E92FE81B8E2F8A8319821AC08C81EE
:100F90009D81FC0180818823C1F08C819D81FC01B1
:100FA0008081833091F08C819D81FC0180810E9441
:100FB0002A088C819D8101969D838C8389818F5F16
:100FC000898399818A81981710F38C819D81FC0116
:100FD0008081882379F499818A81981758F406C012
:100FE00080E20E942A0889818F5F898399818A81A2
:100FF0009817B0F30F900F900F900F900F90DF9114
:10100000CF910895CF93DF9300D000D0CDB7DEB756
:101010008A837C836B838A810E9487070CC08981C5
:101020000E942A088B819C8101969C838B8382E09D
:1010300090E00E94B0028B819C81FC0184918983A5
:101040008981882361F70F900F900F900F90DF91A7
:10105000CF910895CF93DF931F92CDB7DEB78983E9
:101060008BE00E94D30285E290E02981FC0120837D
:10107000000000000000000000008CE00E94D3028D
:10108000000000000000000000008CE00E947A03D5
:1010900082E090E00E94B0020F90DF91CF9108951E
:1010A000CF93DF931F92CDB7DEB789838BE00E9489
:1010B0007A0385E290E02981FC0120838CE00E9484
:1010C000D30200000000000000000000000000004B
:1010D0000000000000008CE00E947A030F90DF9176
:1010E000CF910895CF93DF9300D000D0CDB7DEB776
:1010F0008A837C836B8380E40E94500819820EC02F
:101100008B819C81FC0184910E942A088B819C81A7
:1011100001969C838B8389818F5F89838981883045
:1011200078F38A810E94870780E00E942A080F9046
:101130000F900F900F90DF91CF910895CF93DF9391
:10114000CDB7DEB784E290E02FEFFC0120838AE286
:1011500090E02FEFFC01208387E290E027E230E06F
:10116000F90120812E7FFC01208387E290E027E2B5
:1011700030E0F90120812D7FFC01208387E290E09F
:1011800027E230E0F90120812B7FFC01208385E2FA
:1011900090E0FC0110828BE290E02FEFFC012083B5
:1011A0001092220187E080931D010E945607DF9173
:1011B000CF910895CF93DF93CDB7DEB70E949E08FD
:1011C00061E08BE10E94160661E08AE10E9416064A
:1011D00066E071E081E00E94A8074FE062E288E6E5
:1011E0000E94FB0862E288E60E942F0D88EE93E0E1
:1011F0000E94B002F7CFCF93DF9300D000D0CDB7DD
:10120000DEB78A836B834C838BE10E94D3028AE131
:101210000E94D3028A81880F898389818E7F898386
:1012200061E08BE10E9416068BE10E947A0385E063
:1012300090E09093200180931F0117C085E0809378
:101240001B0106C0000080911B01815080931B018F
:1012500080911B018823B1F780911F01909120019B
:1012600001979093200180931F0180911F0190911D
:101270002001892B19F78AE10E947A0381E090E02E
:101280009093200180931F0117C085E080931B017C
:1012900006C0000080911B01815080931B0180914A
:1012A0001B018823B1F780911F01909120010197C4
:1012B0009093200180931F0180911F019091200144
:1012C000892B19F780E880931A01109224017EC0BF
:1012D00080E880931A0180911A01882F90E0209174
:1012E0002401222F30E002C0959587952A95E2F7D8
:1012F00080931A0190911A0189818923882321F012
:101300008BE10E94D30203C08BE10E947A0381E04B
:1013100090E09093200180931F0117C085E0809397
:101320001B0106C0000080911B01815080931B01AE
:1013300080911B018823B1F780911F0190912001BA
:1013400001979093200180931F0180911F0190913C
:101350002001892B19F788E290E028E230E0F901BA
:1013600020812860FC01208381E090E0909320019F
:1013700080931F0117C085E080931B0106C0000009
:1013800080911B01815080931B0180911B01882358
:10139000B1F780911F019091200101979093200156
:1013A00080931F0180911F0190912001892B19F7D3
:1013B00088E290E028E230E0F9012081277FFC01FB
:1013C0002083809124018F5F8093240180912401E8
:1013D000883008F47DCF61E08BE10E94160681E041
:1013E00090E09093200180931F0117C085E08093C7
:1013F0001B0106C0000080911B01815080931B01DE
:1014000080911B018823B1F780911F0190912001E9
:1014100001979093200180931F0180911F0190916B
:101420002001892B19F788E290E028E230E0F901E9
:1014300020812860FC01208381E090E090932001CE
:1014400080931F0117C085E080931B0106C0000038
:1014500080911B01815080931B0180911B01882387
:10146000B1F780911F019091200101979093200185
:1014700080931F0180911F0190912001892B19F702
:1014800088E290E028E230E0F9012081277FFC012A
:10149000208381E090E09093200180931F0117C08A
:1014A00085E080931B0106C0000080911B018150E4
:1014B00080931B0180911B018823B1F780911F014C
:1014C0009091200101979093200180931F018091BA
:1014D0001F0190912001892B19F761E08BE10E9497
:1014E000160680E880931A0110922401A2C080E8B9
:1014F00080931A0180911A01882F90E02091240195
:10150000222F30E002C0959587952A95E2F78093C7
:101510001A0190911A018B818923882321F08BE194
:101520000E94D30203C08BE10E947A0381E090E025
:101530009093200180931F0117C085E080931B01C9
:1015400006C0000080911B01815080931B01809197
:101550001B018823B1F780911F0190912001019711
:101560009093200180931F0180911F019091200191
:10157000892B19F788E290E028E230E0F901208118
:101580002860FC01208381E090E09093200180930B
:101590001F0117C085E080931B0106C000008091E9
:1015A0001B01815080931B0180911B018823B1F79F
:1015B00080911F01909120010197909320018093C9
:1015C0001F0180911F0190912001892B19F788E25A
:1015D00090E028E230E0F9012081277FFC012083A0
:1015E00081E090E09093200180931F0117C085E077
:1015F00080931B0106C0000080911B0181508093E5
:101600001B0180911B018823B1F780911F019091EC
:10161000200101979093200180931F0180911F0169
:1016200090912001892B19F7809124018F5F80937D
:10163000240180912401883008F459CF61E08BE1C6
:101640000E94160681E090E09093200180931F0194
:1016500017C085E080931B0106C0000080911B012C
:10166000815080931B0180911B018823B1F78091E9
:101670001F019091200101979093200180931F01F9
:1016800080911F0190912001892B19F788E290E049
:1016900028E230E0F90120812860FC01208381E00C
:1016A00090E09093200180931F0117C085E0809304
:1016B0001B0106C0000080911B01815080931B011B
:1016C00080911B018823B1F780911F019091200127
:1016D00001979093200180931F0180911F019091A9
:1016E0002001892B19F788E290E028E230E0F90127
:1016F0002081277FFC01208381E090E090932001EE
:1017000080931F0117C085E080931B0106C0000075
:1017100080911B01815080931B0180911B018823C4
:10172000B1F780911F0190912001019790932001C2
:1017300080931F0180911F0190912001892B19F73F
:1017400080E880931A0161E08BE10E94160681E037
:1017500090E09093200180931F0117C085E0809353
:101760001B0106C0000080911B01815080931B016A
:1017700080911B018823B1F780911F019091200176
:1017800001979093200180931F0180911F019091F8
:101790002001892B19F7109224017EC080E88093E4
:1017A0001A0180911A01882F90E020912401222FA4
:1017B00030E002C0959587952A95E2F780931A014B
:1017C00090911A018C818923882321F08BE10E945A
:1017D000D30203C08BE10E947A0381E090E09093F2
:1017E000200180931F0117C085E080931B0106C074
:1017F000000080911B01815080931B0180911B018F
:101800008823B1F780911F01909120010197909357
:10181000200180931F0180911F0190912001892B4D
:1018200019F788E290E028E230E0F9012081286091
:10183000FC01208381E090E09093200180931F01C0
:1018400017C085E080931B0106C0000080911B013A
:10185000815080931B0180911B018823B1F78091F7
:101860001F019091200101979093200180931F0107
:1018700080911F0190912001892B19F788E290E057
:1018800028E230E0F9012081277FFC01208380914C
:1018900024018F5F8093240180912401883008F413
:1018A0007DCF60E08BE10E94160681E090E090938E
:1018B000200180931F0117C085E080931B0106C0A3
:1018C000000080911B01815080931B0180911B01BE
:1018D0008823B1F780911F01909120010197909387
:1018E000200180931F0180911F0190912001892B7D
:1018F00019F788E290E028E230E0F90120812860C1
:10190000FC01208381E090E09093200180931F01EF
:1019100017C085E080931B0106C0000080911B0169
:10192000815080931B0180911B018823B1F7809126
:101930001F019091200101979093200180931F0136
:1019400080911F0190912001892B19F788E290E086
:1019500028E230E0F9012081277FFC01208381E02B
:1019600090E09093200180931F0117C085E0809341
:101970001B0106C0000080911B01815080931B0158
:1019800080911B018823B1F780911F019091200164
:1019900001979093200180931F0180911F019091E6
:1019A0002001892B19F761E08BE10E9416068BE17B
:1019B0000E947A0381E090E09093200180931F01C0
:1019C00017C085E080931B0106C0000080911B01B9
:1019D000815080931B0180911B018823B1F7809176
:1019E0001F019091200101979093200180931F0186
:1019F00080911F0190912001892B19F78AE10E94A3
:101A0000D30281E090E09093200180931F0117C0E2
:101A100085E080931B0106C0000080911B0181506E
:101A200080931B0180911B018823B1F780911F01D6
:101A30009091200101979093200180931F01809144
:101A40001F0190912001892B19F78BE10E94D3028D
:101A50000F900F900F900F90DF91CF910895CF933B
:101A6000DF9300D01F92CDB7DEB78A836B838BE103
:101A70000E94D3028AE10E94D30261E08BE10E94BE
:101A800016068BE10E947A0381E090E0909320019A
:101A900080931F0117C085E080931B0106C00000E2
:101AA00080911B01815080931B0180911B01882331
:101AB000B1F780911F01909120010197909320012F
:101AC00080931F0180911F0190912001892B19F7AC
:101AD0008AE10E947A0385E090E090932001809350
:101AE0001F0117C085E080931B0106C00000809194
:101AF0001B01815080931B0180911B018823B1F74A
:101B000080911F0190912001019790932001809373
:101B10001F0180911F0190912001892B19F78A8163
:101B2000880F898389818E7F898380E880931A0159
:101B3000109224017EC080E880931A0180911A01DE
:101B4000882F90E020912401222F30E002C095954B
:101B500087952A95E2F780931A0190911A0189815D
:101B60008923882321F08BE10E94D30203C08BE1FB
:101B70000E947A0381E090E09093200180931F01FE
:101B800017C085E080931B0106C0000080911B01F7
:101B9000815080931B0180911B018823B1F78091B4
:101BA0001F019091200101979093200180931F01C4
:101BB00080911F0190912001892B19F788E290E014
:101BC00028E230E0F90120812860FC01208381E0D7
:101BD00090E09093200180931F0117C085E08093CF
:101BE0001B0106C0000080911B01815080931B01E6
:101BF00080911B018823B1F780911F0190912001F2
:101C000001979093200180931F0180911F01909173
:101C10002001892B19F788E290E028E230E0F901F1
:101C20002081277FFC012083809124018F5F809396
:101C3000240180912401883008F47DCF60E08BE19D
:101C40000E94160681E090E09093200180931F018E
:101C500017C085E080931B0106C0000080911B0126
:101C6000815080931B0180911B018823B1F78091E3
:101C70001F019091200101979093200180931F01F3
:101C800080911F0190912001892B19F788E290E043
:101C900028E230E0F90120812860FC01208381E006
:101CA00090E09093200180931F0117C085E08093FE
:101CB0001B0106C0000080911B01815080931B0115
:101CC00080911B018823B1F780911F019091200121
:101CD00001979093200180931F0180911F019091A3
:101CE0002001892B19F788E290E028E230E0F90121
:101CF0002081277FFC01208385E090E090932001E4
:101D000080931F0117C085E080931B0106C000006F
:101D100080911B01815080931B0180911B018823BE
:101D2000B1F780911F0190912001019790932001BC
:101D300080931F0180911F0190912001892B19F739
:101D400080E880931A0161E08BE10E9416061092F0
:101D50002401A2C080E880931A0180911A01882F83
:101D600090E020912401222F30E002C095958795C4
:101D70002A95E2F780931A0190911A018B818923A9
:101D8000882321F08BE10E94D30203C08BE10E94E3
:101D90007A0381E090E09093200180931F0117C0A7
:101DA00085E080931B0106C0000080911B018150DB
:101DB00080931B0180911B018823B1F780911F0143
:101DC0009091200101979093200180931F018091B1
:101DD0001F0190912001892B19F788E290E028E2F9
:101DE00030E0F90120812860FC01208381E090E04F
:101DF0009093200180931F0117C085E080931B0101
:101E000006C0000080911B01815080931B018091CE
:101E10001B018823B1F780911F0190912001019748
:101E20009093200180931F0180911F0190912001C8
:101E3000892B19F788E290E028E230E0F90120814F
:101E4000277FFC01208385E090E090932001809320
:101E50001F0117C085E080931B0106C00000809120
:101E60001B01815080931B0180911B018823B1F7D6
:101E700080911F0190912001019790932001809300
:101E80001F0180911F0190912001892B19F78091EA
:101E900024018F5F8093240180912401883008F40D
:101EA00059CF60E08BE10E94160681E090E09093AC
:101EB000200180931F0117C085E080931B0106C09D
:101EC000000080911B01815080931B0180911B01B8
:101ED0008823B1F780911F01909120010197909381
:101EE000200180931F0180911F0190912001892B77
:101EF00019F788E290E028E230E0F90120812860BB
:101F0000FC01208381E090E09093200180931F01E9
:101F100017C085E080931B0106C0000080911B0163
:101F2000815080931B0180911B018823B1F7809120
:101F30001F019091200101979093200180931F0130
:101F400080911F0190912001892B19F788E290E080
:101F500028E230E0F9012081277FFC01208385E021
:101F600090E09093200180931F0117C085E080933B
:101F70001B0106C0000080911B01815080931B0152
:101F800080911B018823B1F780911F01909120015E
:101F900001979093200180931F0180911F019091E0
:101FA0002001892B19F761E08BE10E94160681E080
:101FB00090E09093200180931F0117C085E08093EB
:101FC0001B0106C0000080911B01815080931B0102
:101FD00080911B018823B1F780911F01909120010E
:101FE00001979093200180931F0180911F01909190
:101FF0002001892B19F78BE10E94D3028AE10E940C
:10200000D30261E08BE10E94160681E090E090939C
:10201000200180931F0117C085E080931B0106C03B
:10202000000080911B01815080931B0180911B0156
:102030008823B1F780911F0190912001019790931F
:10204000200180931F0180911F0190912001892B15
:1020500019F78BE10E947A0381E090E090932001D0
:1020600080931F0117C085E080931B0106C000000C
:1020700080911B01815080931B0180911B0188235B
:10208000B1F780911F019091200101979093200159
:1020900080931F0180911F0190912001892B19F7D6
:1020A0008AE10E947A0385E090E09093200180937A
:1020B0001F0117C085E080931B0106C000008091BE
:1020C0001B01815080931B0180911B018823B1F774
:1020D00080911F019091200101979093200180939E
:1020E0001F0180911F0190912001892B19F78A818E
:1020F000880F898389818160898380E880931A01B0
:10210000109224017EC080E880931A0180911A0108
:10211000882F90E020912401222F30E002C0959575
:1021200087952A95E2F780931A0190911A01898187
:102130008923882321F08BE10E94D30203C08BE125
:102140000E947A0381E090E09093200180931F0128
:1021500017C085E080931B0106C0000080911B0121
:10216000815080931B0180911B018823B1F78091DE
:102170001F019091200101979093200180931F01EE
:1021800080911F0190912001892B19F788E290E03E
:1021900028E230E0F90120812860FC01208381E001
:1021A00090E09093200180931F0117C085E08093F9
:1021B0001B0106C0000080911B01815080931B0110
:1021C00080911B018823B1F780911F01909120011C
:1021D00001979093200180931F0180911F0190919E
:1021E0002001892B19F788E290E028E230E0F9011C
:1021F0002081277FFC012083809124018F5F8093C1
:10220000240180912401883008F47DCF87E290E09A
:1022100027E230E0F90120812F7EFC01208381E05C
:1022200090E09093200180931F0117C085E0809378
:102230001B0106C0000080911B01815080931B018F
:1022400080911B018823B1F780911F01909120019B
:1022500001979093200180931F0180911F0190911D
:102260002001892B19F788E290E028E230E0F9019B
:1022700020812860FC01208381E090E09093200180
:1022800080931F0117C085E080931B0106C00000EA
:1022900080911B01815080931B0180911B01882339
:1022A000B1F780911F019091200101979093200137
:1022B00080931F0180911F0190912001892B19F7B4
:1022C00088E290E028E230E0F9012081277FFC01DC
:1022D000208385E090E09093200180931F0117C038
:1022E00085E080931B0106C0000080911B01815096
:1022F00080931B0180911B018823B1F780911F01FE
:102300009091200101979093200180931F0180916B
:102310001F0190912001892B19F71092250110922D
:1023200024018BC080E880931A0180911A01882FC4
:1023300090E020912401222F30E002C095958795EE
:102340002A95E2F780931A0186E290E0FC018081F1
:10235000882F90E080719927892B41F09091250179
:1023600080911A01892B8093250108C080911A0160
:1023700080959091250189238093250188E290E042
:1023800028E230E0F90120812860FC01208381E00F
:1023900090E09093200180931F0117C085E0809307
:1023A0001B0106C0000080911B01815080931B011E
:1023B00080911B018823B1F780911F01909120012A
:1023C00001979093200180931F0180911F019091AC
:1023D0002001892B19F788E290E028E230E0F9012A
:1023E0002081277FFC01208381E090E090932001F1
:1023F00080931F0117C085E080931B0106C0000079
:1024000080911B01815080931B0180911B018823C7
:10241000B1F780911F0190912001019790932001C5
:1024200080931F0180911F0190912001892B19F742
:10243000809124018F5F8093240180912401883052
:1024400008F470CF85E090E09093200180931F0105
:1024500017C085E080931B0106C0000080911B011E
:10246000815080931B0180911B018823B1F78091DB
:102470001F019091200101979093200180931F01EB
:1024800080911F0190912001892B19F761E08BE168
:102490000E9416068BE10E94D30288E290E028E2B7
:1024A00030E0F90120812860FC01208381E090E088
:1024B0009093200180931F0117C085E080931B013A
:1024C00006C0000080911B01815080931B01809108
:1024D0001B018823B1F780911F0190912001019782
:1024E0009093200180931F0180911F019091200102
:1024F000892B19F788E290E028E230E0F901208189
:10250000277FFC01208385E090E090932001809359
:102510001F0117C085E080931B0106C00000809159
:102520001B01815080931B0180911B018823B1F70F
:1025300080911F0190912001019790932001809339
:102540001F0180911F0190912001892B19F78BE1C8
:102550000E947A0381E090E09093200180931F0114
:1025600017C085E080931B0106C0000080911B010D
:10257000815080931B0180911B018823B1F78091CA
:102580001F019091200101979093200180931F01DA
:1025900080911F0190912001892B19F78AE10E94F7
:1025A000D30281E090E09093200180931F0117C037
:1025B00085E080931B0106C0000080911B018150C3
:1025C00080931B0180911B018823B1F780911F012B
:1025D0009091200101979093200180931F01809199
:1025E0001F0190912001892B19F78BE10E94D302E2
:1025F0000F900F900F90DF91CF910895A1E21A2EC6
:10260000AA1BBB1BFD010DC0AA1FBB1FEE1FFF1F96
:10261000A217B307E407F50720F0A21BB30BE40BE6
:10262000F50B661F771F881F991F1A9469F760952D
:102630007095809590959B01AC01BD01CF010895E7
:04264000F894FFCF3C
:102644003F3F3F3F3F00564944454F2041554C4191
:0426540020333100FE
:00000001FF
