S019000050474D5F41746D6567612D41756C6133312E7372656365
S11300000C943A000C9457000C9457000C9457002D
S11300100C9457000C9457000C9457000C94570000
S11300200C9457000C9457000C9457000C945700F0
S11300300C9457000C9401050C9457000C94570031
S11300400C9457000C9457000C9457000C945700D0
S11300500C9457000C9457000C9457000C945700C0
S11300600C9457000C9457003F065B4F666D7D0758
S11300707F6F800011241FBECFEFD8E0DEBFCDBF5D
S113008011E0A0E0B1E0E2E6FBE002C005900D92D1
S1130090AE30B107D9F721E0AEE0B1E001C01D9266
S11300A0AF31B207E1F70E9492050C94AF050C94AE
S11300B000009C0107C0915001C091E69111FBCF53
S11300C02150310921153105C1F708959EEF980F8C
S11300D0953020F025EF280F233000F5953078F483
S11300E09BB1482F50E04250510921E030E002C05A
S11300F0220F331F4A95E2F7292B2BB921C09BB15C
S1130100482F50E04650510921E030E002C0220F50
S1130110331F4A95E2F7292B2BB912C092EF980F9F
S1130120963070F495B1482F50E04E50510921E0BB
S113013030E002C0220F331F4A95E2F7292B25B97C
S113014099EE980F963010F08130F9F4963078F4E7
S113015048B1282F30E02751310981E090E002C0F6
S1130160880F991F2A95E2F7842B88B9089548B11E
S113017090E0059721E030E0B90102C0660F771FD7
S11301808A95E2F7CB01842B88B908959EEF980FE6
S1130190953020F025EF280F233010F5953080F4AA
S11301A09BB1482F50E04250510921E030E002C099
S11301B0220F331F4A95E2F7209529232BB923C038
S11301C09BB1482F50E04650510921E030E002C075
S11301D0220F331F4A95E2F7209529232BB913C028
S11301E092EF980F963078F495B1482F50E04E5026
S11301F0510921E030E002C0220F331F4A95E2F793
S11302002095292325B999EE980F963010F0813066
S113021009F5963080F428B1482F50E04751510930
S113022081E090E002C0880F991F4A95E2F780951B
S1130230822388B9089548B190E0059721E030E021
S1130240B90102C0660F771F8A95E2F7CB0180954A
S1130250842388B908959EEF980F953028F025EFF0
S1130260280F233008F044C0611122C0953080F477
S11302704AB190E0029721E030E0B90102C0660F74
S1130280771F8A95E2F7CB01809584238AB9089574
S11302904AB190E0069721E030E0B90102C0660F50
S11302A0771F8A95E2F7CB01809584238AB9089554
S11302B0953078F44AB190E0029721E030E0B9013A
S11302C002C0660F771F8A95E2F7CB01842B8AB9A7
S11302D008954AB190E0069721E030E0B90102C0E8
S11302E0660F771F8A95E2F7CB01842B8AB90895AC
S11302F092EF980F963008F5611110C044B190E068
S11303000E9721E030E0B90102C0660F771F8A958D
S1130310E2F7CB018095842384B9089544B190E039
S11303200E9721E030E0B90102C0660F771F8A956D
S1130330E2F7CB01842B84B9089599EE980F963097
S113034018F0813009F043C0611122C0963080F466
S113035047B190E0479721E030E0B90102C0660F51
S1130360771F8A95E2F7CB018095842387B9089596
S113037047B190E0059721E030E0B90102C0660F73
S1130380771F8A95E2F7CB018095842387B9089576
S1130390963078F447B190E0479721E030E0B90116
S11303A002C0660F771F8A95E2F7CB01842B87B9C9
S11303B0089547B190E0059721E030E0B90102C00B
S11303C0660F771F8A95E2F7CB01842B87B90895CE
S11303D0CF93C82F8BE00E946600C5B900000000CF
S11303E00000000000008CE00E9466000000000095
S11303F00000000000008CE00E94C600CF91089528
S1130400CF93C82F8BE00E94C600C5B98CE00E9430
S11304106600000000000000000000000000000072
S11304200000000000008CE00E94C600CF910895F7
S113043088E30E94000288E30E94000286E00E9492
S113044000028CE00E94000281E00E94000280E829
S11304500E9400020895813120F481580E94000214
S1130460089581550E94000208950F931F93CF931E
S1130470DF93C82F8B010E942B02C13118F0D1E207
S1130480DC1B02C0D1E1DC1BC0E00BC0F8018081A1
S1130490882349F0833039F00E94E8010F5F1F4F31
S11304A0CF5FCD1798F3F8018081811109C0CD1772
S11304B028F006C080E20E94E801CF5FCD17D0F398
S11304C0DF91CF911F910F910895CF93DF93CDB713
S11304D0DEB728970FB6F894DEBF0FBECDBF87B145
S11304E08F7E87B988B1806188B91A82198206C063
S11304F0000089819A8101969A83898389819A81EE
S113050088379105A8F388B1806288B91C821B8260
S113051006C000008B819C8101969C838B838B8118
S11305209C8188379105A8F387B1806187B988B128
S11305308F7E88B91E821D8206C000008D819E8137
S113054001969E838D838D819E8188379105A8F3C2
S113055088B18F7D88B918861F8206C000008F81FC
S11305609885019698878F838F8198858837910520
S1130570A8F328960FB6F894DEBF0FBECDBFDF9167
S1130580CF910895CF93DF9300D000D000D0CDB7A2
S1130590DEB787B1806187B988B18F7E88B91A8246
S11305A0198206C0000089819A8101969A83898301
S11305B089819A8188379105A8F388B1806288B9C6
S11305C01C821B8206C000008B819C8101969C8347
S11305D08B838B819C8188379105A8F387B18F7EAB
S11305E087B988B1806188B91E821D8206C0000067
S11305F08D819E8101969E838D838D819E81883716
S11306009105A8F326960FB6F894DEBF0FBECDBFB2
S1130610DF91CF910895CF93DF93CDB7DEB72E97B7
S11306200FB6F894DEBF0FBECDBF40E053C08823A1
S1130630B4F497B19F7E97B998B1906198B91E862A
S11306401D8607C000002D853E852F5F3F4F3E87E6
S11306502D872D853E8528373105A0F315C097B128
S1130660906197B998B19F7E98B91C861B8607C084
S113067000002B853C852F5F3F4F3C872B872B85C4
S11306803C8528373105A0F398B1906298B9188653
S11306901F8207C000002F8138852F5F3F4F3887A6
S11306A02F832F81388528373105A0F398B19F7D9A
S11306B098B91A86198607C0000029853A852F5FE4
S11306C03F4F3A87298729853A8528373105A0F392
S11306D0880F4F5F483008F4AACF87B18F7E87B95F
S11306E088B1806188B91A82198206C000008981A4
S11306F09A8101969A83898389819A8188379105A1
S1130700A8F388B1806288B91C821B8206C00000ED
S11307108B819C8101969C838B838B819C81883700
S11307209105A8F326B1207188B18F7D88B91E8206
S11307301D8206C000008D819E8101969E838D835B
S11307408D819E8188379105A8F381E0211180E095
S11307502E960FB6F894DEBF0FBECDBFDF91CF91BA
S11307600895CF93DF93CDB7DEB760970FB6F894B3
S1130770DEBF0FBECDBF582F97B19F7E97B998B1FA
S1130780906198B9188A1F8607C000002F853889A0
S11307902F5F3F4F388B2F872F85388928373105B6
S11307A0A0F340E080E028C0880F98B1906298B927
S11307B01E861D8607C000002D853E852F5F3F4F96
S11307C03E872D872D853E8528373105A0F3349942
S11307D0816098B19F7D98B91C861B8607C0000074
S11307E02B853C852F5F3F4F3C872B872B853C8592
S11307F028373105A0F34F5F4830B0F25523B1F0EC
S113080097B1906197B998B19F7E98B91A86198665
S113081007C0000029853A852F5F3F4F3A87298713
S113082029853A8528373105A0F315C097B19F7EF5
S113083097B998B1906198B918861F8207C00000D3
S11308402F8138852F5F3F4F38872F832F8138853D
S113085028373105A0F398B1906298B91A821982A9
S113086007C0000029813A812F5F3F4F3A832983D3
S113087029813A8128373105A0F398B19F7D98B931
S11308801C821B8207C000002B813C812F5F3F4FDD
S11308903C832B832B813C8128373105A0F397B10E
S11308A09F7E97B998B1906198B91E821D8207C046
S11308B000002D813E812F5F3F4F3E832D832D818C
S11308C03E8128373105A0F360960FB6F894DEBF59
S11308D00FBECDBFDF91CF910895FF920F931F9369
S11308E0CF93DF9300D0CDB7DEB7F82E062F142FA9
S11308F087B1806287B988B1806288B987B18F7EF9
S113090087B988B1806188B91A82198206C000004B
S113091089819A8101969A83898389819A8188370A
S11309209105A8F30E9465028F2D880F0E940B0386
S1130930802F0E940B03812F0E940B030E94C2028E
S11309400F900F90DF91CF911F910F91FF90089519
S11309500F931F93CF93DF9300D0CDB7DEB7182F3B
S1130960062F87B1806287B988B1806288B987B160
S11309708F7E87B988B1806188B91A82198206C0CE
S1130980000089819A8101969A83898389819A8159
S113099088379105A8F30E946502812F880F0E9471
S11309A00B03802F0E940B030E946502812F90E0AD
S11309B0880F991F81600E940B0380E00E94B1039D
S11309C080931C010E94C2020F900F90DF91CF917F
S11309D01F910F9108958FEF84B98AB997B19E7FC3
S11309E097B997B19D7F97B997B19B7F97B915B880
S11309F08BB91092190187E0809314010E941802A8
S1130A0008951F920F920FB60F9211242F933F93C4
S1130A104F935F936F937F938F939F93AF93BF9302
S1130A20EF93FF938EE19BEF909385008093840076
S1130A3080911E01882319F08130C1F02AC084E01E
S1130A400E946600E0911A01F0E0E859FF4F84919A
S1130A5085B98BB1877F8BB900008BB188608BB966
S1130A6080911E018F5F80931E0113C084E00E9459
S1130A70C600E0911301F0E0E859FF4F849185B975
S1130A808BB1877F8BB900008BB188608BB91092D2
S1130A901E0180911901813099F018F0823039F1EA
S1130AA030C096B19770973061F192E0909318013D
S1130AB096B19770909310018F5F8093190121C0B4
S1130AC09091180191509093180191111AC096B108
S1130AD0209110019770921304C08F5F80931901C5
S1130AE010C01092190187E0809314010AC086B1E6
S1130AF08770873031F4109219018091100180932E
S1130B001401FF91EF91BF91AF919F918F917F91CC
S1130B106F915F914F913F912F910F900FBE0F9066
S1130B201F9018950E94EB0461E08BE10E942B0159
S1130B3061E08CE10E942B0160E071E081E00E94A1
S1130B4035024FE062E288E60E946D0462E288E6C4
S1130B500E94A80488EE93E00E945900F7CFF8940D
S1050B60FFCFC1
S1110B62564944454F2041554C412033310043
S9030000FC
